{
  "_format": "hh-sol-artifact-1",
  "contractName": "Marketplace",
  "sourceName": "src/backend/contracts/Marketplace.sol",
  "abi": [
    {
      "inputs": [
        {
          "internalType": "uint256",
          "name": "_feePercent",
          "type": "uint256"
        }
      ],
      "stateMutability": "nonpayable",
      "type": "constructor"
    },
    {
      "anonymous": false,
      "inputs": [
        {
          "indexed": false,
          "internalType": "uint256",
          "name": "itemId",
          "type": "uint256"
        },
        {
          "indexed": true,
          "internalType": "address",
          "name": "nft",
          "type": "address"
        },
        {
          "indexed": false,
          "internalType": "uint256",
          "name": "tokenId",
          "type": "uint256"
        },
        {
          "indexed": false,
          "internalType": "uint256",
          "name": "price",
          "type": "uint256"
        },
        {
          "indexed": true,
          "internalType": "address",
          "name": "seller",
          "type": "address"
        },
        {
          "indexed": true,
          "internalType": "address",
          "name": "buyer",
          "type": "address"
        }
      ],
      "name": "Bought",
      "type": "event"
    },
    {
      "anonymous": false,
      "inputs": [
        {
          "indexed": false,
          "internalType": "uint256",
          "name": "itemId",
          "type": "uint256"
        },
        {
          "indexed": true,
          "internalType": "address",
          "name": "nft",
          "type": "address"
        },
        {
          "indexed": false,
          "internalType": "uint256",
          "name": "tokenId",
          "type": "uint256"
        },
        {
          "indexed": false,
          "internalType": "uint256",
          "name": "price",
          "type": "uint256"
        },
        {
          "indexed": true,
          "internalType": "address",
          "name": "seller",
          "type": "address"
        }
      ],
      "name": "Offered",
      "type": "event"
    },
    {
      "inputs": [],
      "name": "feeAccount",
      "outputs": [
        {
          "internalType": "address payable",
          "name": "",
          "type": "address"
        }
      ],
      "stateMutability": "view",
      "type": "function"
    },
    {
      "inputs": [],
      "name": "feePercent",
      "outputs": [
        {
          "internalType": "uint256",
          "name": "",
          "type": "uint256"
        }
      ],
      "stateMutability": "view",
      "type": "function"
    },
    {
      "inputs": [
        {
          "internalType": "uint256",
          "name": "_itemId",
          "type": "uint256"
        }
      ],
      "name": "getTotalPrice",
      "outputs": [
        {
          "internalType": "uint256",
          "name": "",
          "type": "uint256"
        }
      ],
      "stateMutability": "view",
      "type": "function"
    },
    {
      "inputs": [],
      "name": "itemCount",
      "outputs": [
        {
          "internalType": "uint256",
          "name": "",
          "type": "uint256"
        }
      ],
      "stateMutability": "view",
      "type": "function"
    },
    {
      "inputs": [
        {
          "internalType": "uint256",
          "name": "",
          "type": "uint256"
        }
      ],
      "name": "items",
      "outputs": [
        {
          "internalType": "uint256",
          "name": "itemId",
          "type": "uint256"
        },
        {
          "internalType": "contract IERC721",
          "name": "nft",
          "type": "address"
        },
        {
          "internalType": "uint256",
          "name": "tokenId",
          "type": "uint256"
        },
        {
          "internalType": "uint256",
          "name": "price",
          "type": "uint256"
        },
        {
          "internalType": "address payable",
          "name": "seller",
          "type": "address"
        },
        {
          "internalType": "bool",
          "name": "sold",
          "type": "bool"
        }
      ],
      "stateMutability": "view",
      "type": "function"
    },
    {
      "inputs": [
        {
          "internalType": "contract IERC721",
          "name": "_nft",
          "type": "address"
        },
        {
          "internalType": "uint256",
          "name": "_tokenId",
          "type": "uint256"
        },
        {
          "internalType": "uint256",
          "name": "_price",
          "type": "uint256"
        }
      ],
      "name": "makeItem",
      "outputs": [],
      "stateMutability": "nonpayable",
      "type": "function"
    },
    {
      "inputs": [
        {
          "internalType": "uint256",
          "name": "_itemId",
          "type": "uint256"
        }
      ],
      "name": "purchaseItem",
      "outputs": [],
      "stateMutability": "payable",
      "type": "function"
    },
    {
      "inputs": [
        {
          "internalType": "contract IERC721",
          "name": "_nft",
          "type": "address"
        },
        {
          "internalType": "uint256",
          "name": "_tokenID",
          "type": "uint256"
        },
        {
          "internalType": "uint256",
          "name": "_itemId",
          "type": "uint256"
        }
      ],
      "name": "removeItem",
      "outputs": [],
      "stateMutability": "nonpayable",
      "type": "function"
    }
  ],
  "bytecode": "0x60c0604052600160025534801561001557600080fd5b50604051620013e2380380620013e28339818101604052810190610039919061009b565b60016000819055503373ffffffffffffffffffffffffffffffffffffffff1660808173ffffffffffffffffffffffffffffffffffffffff1660601b815250508060a08181525050506100e5565b600081519050610095816100ce565b92915050565b6000602082840312156100ad57600080fd5b60006100bb84828501610086565b91505092915050565b6000819050919050565b6100d7816100c4565b81146100e257600080fd5b50565b60805160601c60a0516112c66200011c600039600081816103f901526104aa0152600081816101f001526106d001526112c66000f3fe60806040526004361061007b5760003560e01c8063bfb231d21161004e578063bfb231d21461012a578063ca7dd3751461016c578063d38ea5bf146101a9578063fa00afc7146101c55761007b565b806365e17c9d1461008057806366de6ebb146100ab5780636bfb0d01146100d45780637fd6f15c146100ff575b600080fd5b34801561008c57600080fd5b506100956101ee565b6040516100a29190610d43565b60405180910390f35b3480156100b757600080fd5b506100d260048036038101906100cd9190610bd1565b610212565b005b3480156100e057600080fd5b506100e96103f1565b6040516100f69190610e35565b60405180910390f35b34801561010b57600080fd5b506101146103f7565b6040516101219190610e35565b60405180910390f35b34801561013657600080fd5b50610151600480360381019061014c9190610c20565b61041b565b60405161016396959493929190610e50565b60405180910390f35b34801561017857600080fd5b50610193600480360381019061018e9190610c20565b6104a4565b6040516101a09190610e35565b60405180910390f35b6101c360048036038101906101be9190610c20565b610507565b005b3480156101d157600080fd5b506101ec60048036038101906101e79190610bd1565b6108d5565b005b7f000000000000000000000000000000000000000000000000000000000000000081565b60026000541415610258576040517f08c379a000000000000000000000000000000000000000000000000000000000815260040161024f90610e15565b60405180910390fd5b6002600081905550600360008281526020019081526020016000206000808201600090556001820160006101000a81549073ffffffffffffffffffffffffffffffffffffffff0219169055600282016000905560038201600090556004820160006101000a81549073ffffffffffffffffffffffffffffffffffffffff02191690556004820160146101000a81549060ff02191690555050600160008154809291906103039061109e565b91905055508273ffffffffffffffffffffffffffffffffffffffff166323b872dd3033856040518463ffffffff1660e01b815260040161034593929190610d5e565b600060405180830381600087803b15801561035f57600080fd5b505af1158015610373573d6000803e3d6000fd5b505050503373ffffffffffffffffffffffffffffffffffffffff168373ffffffffffffffffffffffffffffffffffffffff167f655a0cf9c8db81512be9a76dc1c5ae5380b8816ce6ad659cd61b715e2999d59a600154856002546040516103dc93929190610eb1565b60405180910390a36001600081905550505050565b60015481565b7f000000000000000000000000000000000000000000000000000000000000000081565b60036020528060005260406000206000915090508060000154908060010160009054906101000a900473ffffffffffffffffffffffffffffffffffffffff16908060020154908060030154908060040160009054906101000a900473ffffffffffffffffffffffffffffffffffffffff16908060040160149054906101000a900460ff16905086565b600060647f000000000000000000000000000000000000000000000000000000000000000060646104d59190610ef9565b60036000858152602001908152602001600020600301546104f69190610f80565b6105009190610f4f565b9050919050565b6002600054141561054d576040517f08c379a000000000000000000000000000000000000000000000000000000000815260040161054490610e15565b60405180910390fd5b60026000819055506000610560826104a4565b9050600060036000848152602001908152602001600020905060008311801561058b57506001548311155b6105ca576040517f08c379a00000000000000000000000000000000000000000000000000000000081526004016105c190610df5565b60405180910390fd5b8134101561060d576040517f08c379a000000000000000000000000000000000000000000000000000000000815260040161060490610dd5565b60405180910390fd5b8060040160149054906101000a900460ff161561065f576040517f08c379a000000000000000000000000000000000000000000000000000000000815260040161065690610d95565b60405180910390fd5b8060040160009054906101000a900473ffffffffffffffffffffffffffffffffffffffff1673ffffffffffffffffffffffffffffffffffffffff166108fc82600301549081150290604051600060405180830381858888f193505050501580156106cd573d6000803e3d6000fd5b507f000000000000000000000000000000000000000000000000000000000000000073ffffffffffffffffffffffffffffffffffffffff166108fc8260030154846107189190610fda565b9081150290604051600060405180830381858888f19350505050158015610743573d6000803e3d6000fd5b5060018160040160146101000a81548160ff0219169083151502179055508060010160009054906101000a900473ffffffffffffffffffffffffffffffffffffffff1673ffffffffffffffffffffffffffffffffffffffff166323b872dd303384600201546040518463ffffffff1660e01b81526004016107c693929190610d5e565b600060405180830381600087803b1580156107e057600080fd5b505af11580156107f4573d6000803e3d6000fd5b505050503373ffffffffffffffffffffffffffffffffffffffff168160040160009054906101000a900473ffffffffffffffffffffffffffffffffffffffff1673ffffffffffffffffffffffffffffffffffffffff168260010160009054906101000a900473ffffffffffffffffffffffffffffffffffffffff1673ffffffffffffffffffffffffffffffffffffffff167f8b4c9c8a607d67b321582dd8461041b1dc2ceeca70c8b7f37f8e02095cf2e76d86856002015486600301546040516108c093929190610eb1565b60405180910390a45050600160008190555050565b6002600054141561091b576040517f08c379a000000000000000000000000000000000000000000000000000000000815260040161091290610e15565b60405180910390fd5b600260008190555060008111610966576040517f08c379a000000000000000000000000000000000000000000000000000000000815260040161095d90610db5565b60405180910390fd5b60016000815480929190610979906110c8565b91905055508273ffffffffffffffffffffffffffffffffffffffff166323b872dd3330856040518463ffffffff1660e01b81526004016109bb93929190610d5e565b600060405180830381600087803b1580156109d557600080fd5b505af11580156109e9573d6000803e3d6000fd5b505050506040518060c0016040528060015481526020018473ffffffffffffffffffffffffffffffffffffffff1681526020018381526020018281526020013373ffffffffffffffffffffffffffffffffffffffff168152602001600015158152506003600060015481526020019081526020016000206000820151816000015560208201518160010160006101000a81548173ffffffffffffffffffffffffffffffffffffffff021916908373ffffffffffffffffffffffffffffffffffffffff160217905550604082015181600201556060820151816003015560808201518160040160006101000a81548173ffffffffffffffffffffffffffffffffffffffff021916908373ffffffffffffffffffffffffffffffffffffffff16021790555060a08201518160040160146101000a81548160ff0219169083151502179055509050503373ffffffffffffffffffffffffffffffffffffffff168373ffffffffffffffffffffffffffffffffffffffff167f655a0cf9c8db81512be9a76dc1c5ae5380b8816ce6ad659cd61b715e2999d59a6001548585604051610b9293929190610eb1565b60405180910390a36001600081905550505050565b600081359050610bb681611262565b92915050565b600081359050610bcb81611279565b92915050565b600080600060608486031215610be657600080fd5b6000610bf486828701610ba7565b9350506020610c0586828701610bbc565b9250506040610c1686828701610bbc565b9150509250925092565b600060208284031215610c3257600080fd5b6000610c4084828501610bbc565b91505092915050565b610c5281611020565b82525050565b610c618161100e565b82525050565b610c7081611032565b82525050565b610c7f8161107a565b82525050565b6000610c92601183610ee8565b9150610c9d8261116f565b602082019050919050565b6000610cb5601f83610ee8565b9150610cc082611198565b602082019050919050565b6000610cd8603383610ee8565b9150610ce3826111c1565b604082019050919050565b6000610cfb601283610ee8565b9150610d0682611210565b602082019050919050565b6000610d1e601f83610ee8565b9150610d2982611239565b602082019050919050565b610d3d81611070565b82525050565b6000602082019050610d586000830184610c49565b92915050565b6000606082019050610d736000830186610c58565b610d806020830185610c58565b610d8d6040830184610d34565b949350505050565b60006020820190508181036000830152610dae81610c85565b9050919050565b60006020820190508181036000830152610dce81610ca8565b9050919050565b60006020820190508181036000830152610dee81610ccb565b9050919050565b60006020820190508181036000830152610e0e81610cee565b9050919050565b60006020820190508181036000830152610e2e81610d11565b9050919050565b6000602082019050610e4a6000830184610d34565b92915050565b600060c082019050610e656000830189610d34565b610e726020830188610c76565b610e7f6040830187610d34565b610e8c6060830186610d34565b610e996080830185610c49565b610ea660a0830184610c67565b979650505050505050565b6000606082019050610ec66000830186610d34565b610ed36020830185610d34565b610ee06040830184610d34565b949350505050565b600082825260208201905092915050565b6000610f0482611070565b9150610f0f83611070565b9250827fffffffffffffffffffffffffffffffffffffffffffffffffffffffffffffffff03821115610f4457610f43611111565b5b828201905092915050565b6000610f5a82611070565b9150610f6583611070565b925082610f7557610f74611140565b5b828204905092915050565b6000610f8b82611070565b9150610f9683611070565b9250817fffffffffffffffffffffffffffffffffffffffffffffffffffffffffffffffff0483118215151615610fcf57610fce611111565b5b828202905092915050565b6000610fe582611070565b9150610ff083611070565b92508282101561100357611002611111565b5b828203905092915050565b600061101982611050565b9050919050565b600061102b82611050565b9050919050565b60008115159050919050565b60006110498261100e565b9050919050565b600073ffffffffffffffffffffffffffffffffffffffff82169050919050565b6000819050919050565b60006110858261108c565b9050919050565b600061109782611050565b9050919050565b60006110a982611070565b915060008214156110bd576110bc611111565b5b600182039050919050565b60006110d382611070565b91507fffffffffffffffffffffffffffffffffffffffffffffffffffffffffffffffff82141561110657611105611111565b5b600182019050919050565b7f4e487b7100000000000000000000000000000000000000000000000000000000600052601160045260246000fd5b7f4e487b7100000000000000000000000000000000000000000000000000000000600052601260045260246000fd5b7f6974656d20616c726561647920736f6c64000000000000000000000000000000600082015250565b7f5072696365206d7573742062652067726561746572207468616e207a65726f00600082015250565b7f6e6f7420656e6f75676820657468657220746f20636f766572206974656d207060008201527f7269636520616e64206d61726b65742066656500000000000000000000000000602082015250565b7f6974656d20646f65736e27742065786973740000000000000000000000000000600082015250565b7f5265656e7472616e637947756172643a207265656e7472616e742063616c6c00600082015250565b61126b8161103e565b811461127657600080fd5b50565b61128281611070565b811461128d57600080fd5b5056fea2646970667358221220ea8875e493068e259003a1d73b4f35ec56bdcdffe0d333afd721e21b3990c95064736f6c63430008040033",
  "linkReferences": {},
  "deployedLinkReferences": {}
}